{
  "_format": "hh-sol-artifact-1",
  "contractName": "GroupBuyProduct",
  "sourceName": "contracts/GroupBuyProduct.sol",
  "abi": [
    {
      "inputs": [
        {
          "internalType": "address",
          "name": "_seller",
          "type": "address"
        },
        {
          "internalType": "uint256",
          "name": "_endTime",
          "type": "uint256"
        },
        {
          "internalType": "uint256",
          "name": "_price",
          "type": "uint256"
        },
        {
          "internalType": "string",
          "name": "_productName",
          "type": "string"
        },
        {
          "internalType": "string",
          "name": "_productDescription",
          "type": "string"
        }
      ],
      "stateMutability": "nonpayable",
      "type": "constructor"
    },
    {
      "anonymous": false,
      "inputs": [],
      "name": "GroupBuyClosed",
      "type": "event"
    },
    {
      "anonymous": false,
      "inputs": [
        {
          "indexed": false,
          "internalType": "address",
          "name": "newBuyer",
          "type": "address"
        }
      ],
      "name": "NewOrder",
      "type": "event"
    },
    {
      "anonymous": false,
      "inputs": [],
      "name": "WithdrawFunds",
      "type": "event"
    },
    {
      "stateMutability": "payable",
      "type": "fallback"
    },
    {
      "inputs": [
        {
          "internalType": "uint256",
          "name": "",
          "type": "uint256"
        }
      ],
      "name": "buyers",
      "outputs": [
        {
          "internalType": "address payable",
          "name": "",
          "type": "address"
        }
      ],
      "stateMutability": "view",
      "type": "function"
    },
    {
      "inputs": [],
      "name": "endTime",
      "outputs": [
        {
          "internalType": "uint256",
          "name": "",
          "type": "uint256"
        }
      ],
      "stateMutability": "view",
      "type": "function"
    },
    {
      "inputs": [],
      "name": "getAllOrders",
      "outputs": [
        {
          "internalType": "address payable[]",
          "name": "_buyers",
          "type": "address[]"
        }
      ],
      "stateMutability": "view",
      "type": "function"
    },
    {
      "inputs": [],
      "name": "getGroupBuyState",
      "outputs": [
        {
          "internalType": "enum GroupBuyProduct.GroupBuyState",
          "name": "",
          "type": "uint8"
        }
      ],
      "stateMutability": "view",
      "type": "function"
    },
    {
      "inputs": [
        {
          "internalType": "address",
          "name": "buyer",
          "type": "address"
        }
      ],
      "name": "hasCurrentBid",
      "outputs": [
        {
          "internalType": "bool",
          "name": "",
          "type": "bool"
        }
      ],
      "stateMutability": "view",
      "type": "function"
    },
    {
      "inputs": [],
      "name": "placeOrder",
      "outputs": [
        {
          "internalType": "bool",
          "name": "",
          "type": "bool"
        }
      ],
      "stateMutability": "payable",
      "type": "function"
    },
    {
      "inputs": [],
      "name": "price",
      "outputs": [
        {
          "internalType": "uint256",
          "name": "",
          "type": "uint256"
        }
      ],
      "stateMutability": "view",
      "type": "function"
    },
    {
      "inputs": [],
      "name": "productDescription",
      "outputs": [
        {
          "internalType": "string",
          "name": "",
          "type": "string"
        }
      ],
      "stateMutability": "view",
      "type": "function"
    },
    {
      "inputs": [],
      "name": "productName",
      "outputs": [
        {
          "internalType": "string",
          "name": "",
          "type": "string"
        }
      ],
      "stateMutability": "view",
      "type": "function"
    },
    {
      "inputs": [],
      "name": "seller",
      "outputs": [
        {
          "internalType": "address",
          "name": "",
          "type": "address"
        }
      ],
      "stateMutability": "view",
      "type": "function"
    },
    {
      "inputs": [],
      "name": "startTime",
      "outputs": [
        {
          "internalType": "uint256",
          "name": "",
          "type": "uint256"
        }
      ],
      "stateMutability": "view",
      "type": "function"
    },
    {
      "inputs": [],
      "name": "withdrawFunds",
      "outputs": [
        {
          "internalType": "bool",
          "name": "",
          "type": "bool"
        }
      ],
      "stateMutability": "nonpayable",
      "type": "function"
    },
    {
      "stateMutability": "payable",
      "type": "receive"
    }
  ],
  "bytecode": "0x60806040523480156200001157600080fd5b5060405162001650380380620016508339818101604052810190620000379190620002fc565b84600460006101000a81548173ffffffffffffffffffffffffffffffffffffffff021916908373ffffffffffffffffffffffffffffffffffffffff1602179055508342620000869190620003f1565b60008190555042600181905550826003819055508160059081620000ab91906200066d565b508060069081620000bd91906200066d565b50505050505062000754565b6000604051905090565b600080fd5b600080fd5b600073ffffffffffffffffffffffffffffffffffffffff82169050919050565b60006200010a82620000dd565b9050919050565b6200011c81620000fd565b81146200012857600080fd5b50565b6000815190506200013c8162000111565b92915050565b6000819050919050565b620001578162000142565b81146200016357600080fd5b50565b60008151905062000177816200014c565b92915050565b600080fd5b600080fd5b6000601f19601f8301169050919050565b7f4e487b7100000000000000000000000000000000000000000000000000000000600052604160045260246000fd5b620001d28262000187565b810181811067ffffffffffffffff82111715620001f457620001f362000198565b5b80604052505050565b600062000209620000c9565b9050620002178282620001c7565b919050565b600067ffffffffffffffff8211156200023a576200023962000198565b5b620002458262000187565b9050602081019050919050565b60005b838110156200027257808201518184015260208101905062000255565b60008484015250505050565b6000620002956200028f846200021c565b620001fd565b905082815260208101848484011115620002b457620002b362000182565b5b620002c184828562000252565b509392505050565b600082601f830112620002e157620002e06200017d565b5b8151620002f38482602086016200027e565b91505092915050565b600080600080600060a086880312156200031b576200031a620000d3565b5b60006200032b888289016200012b565b95505060206200033e8882890162000166565b9450506040620003518882890162000166565b935050606086015167ffffffffffffffff811115620003755762000374620000d8565b5b6200038388828901620002c9565b925050608086015167ffffffffffffffff811115620003a757620003a6620000d8565b5b620003b588828901620002c9565b9150509295509295909350565b7f4e487b7100000000000000000000000000000000000000000000000000000000600052601160045260246000fd5b6000620003fe8262000142565b91506200040b8362000142565b9250828201905080821115620004265762000425620003c2565b5b92915050565b600081519050919050565b7f4e487b7100000000000000000000000000000000000000000000000000000000600052602260045260246000fd5b600060028204905060018216806200047f57607f821691505b60208210810362000495576200049462000437565b5b50919050565b60008190508160005260206000209050919050565b60006020601f8301049050919050565b600082821b905092915050565b600060088302620004ff7fffffffffffffffffffffffffffffffffffffffffffffffffffffffffffffffff82620004c0565b6200050b8683620004c0565b95508019841693508086168417925050509392505050565b6000819050919050565b60006200054e62000548620005428462000142565b62000523565b62000142565b9050919050565b6000819050919050565b6200056a836200052d565b62000582620005798262000555565b848454620004cd565b825550505050565b600090565b620005996200058a565b620005a68184846200055f565b505050565b5b81811015620005ce57620005c26000826200058f565b600181019050620005ac565b5050565b601f8211156200061d57620005e7816200049b565b620005f284620004b0565b8101602085101562000602578190505b6200061a6200061185620004b0565b830182620005ab565b50505b505050565b600082821c905092915050565b6000620006426000198460080262000622565b1980831691505092915050565b60006200065d83836200062f565b9150826002028217905092915050565b62000678826200042c565b67ffffffffffffffff81111562000694576200069362000198565b5b620006a0825462000466565b620006ad828285620005d2565b600060209050601f831160018114620006e55760008415620006d0578287015190505b620006dc85826200064f565b8655506200074c565b601f198416620006f5866200049b565b60005b828110156200071f57848901518255600182019150602085019450602081019050620006f8565b868310156200073f57848901516200073b601f8916826200062f565b8355505b6001600288020188555050505b505050505050565b610eec80620007646000396000f3fe6080604052600436106100ab5760003560e01c80637bea0d1c116100645780637bea0d1c146101c85780637f7650eb146101f35780638a30f8cc1461021e578063a035b1fe14610249578063f2aa821814610274578063f5c609e0146102b1576100b2565b806308551a53146100b457806324600fc3146100df5780633197cbb61461010a57806344b6423d1461013557806378e97925146101605780637a1881c11461018b576100b2565b366100b257005b005b3480156100c057600080fd5b506100c96102cf565b6040516100d691906108f6565b60405180910390f35b3480156100eb57600080fd5b506100f46102f5565b604051610101919061092c565b60405180910390f35b34801561011657600080fd5b5061011f610462565b60405161012c9190610960565b60405180910390f35b34801561014157600080fd5b5061014a610468565b60405161015791906109f2565b60405180910390f35b34801561016c57600080fd5b50610175610483565b6040516101829190610960565b60405180910390f35b34801561019757600080fd5b506101b260048036038101906101ad9190610a3e565b610489565b6040516101bf919061092c565b60405180910390f35b3480156101d457600080fd5b506101dd610533565b6040516101ea9190610b3b565b60405180910390f35b3480156101ff57600080fd5b506102086105c1565b6040516102159190610bed565b60405180910390f35b34801561022a57600080fd5b5061023361064f565b6040516102409190610bed565b60405180910390f35b34801561025557600080fd5b5061025e6106dd565b60405161026b9190610960565b60405180910390f35b34801561028057600080fd5b5061029b60048036038101906102969190610c3b565b6106e3565b6040516102a89190610c77565b60405180910390f35b6102b9610722565b6040516102c6919061092c565b60405180910390f35b600460009054906101000a900473ffffffffffffffffffffffffffffffffffffffff1681565b600060018081111561030a5761030961097b565b5b610312610468565b60018111156103245761032361097b565b5b1461032e57600080fd5b60004790506000600460009054906101000a900473ffffffffffffffffffffffffffffffffffffffff1673ffffffffffffffffffffffffffffffffffffffff168260405161037b90610cc3565b60006040518083038185875af1925050503d80600081146103b8576040519150601f19603f3d011682016040523d82523d6000602084013e6103bd565b606091505b5050905080610401576040517f08c379a00000000000000000000000000000000000000000000000000000000081526004016103f890610d24565b60405180910390fd5b7f4c0aac9a75e6f4eb3fa777d5d97b41afd303b89080e5f631bd0d26be23a33fd960405160405180910390a17f07ae1527d5997787f97ab7efcd65b540e55bfa674d2677393c95cc8c94c97ba760405160405180910390a160019250505090565b60005481565b60008054421061047b5760019050610480565b600090505b90565b60015481565b6000806000905060005b600280549050811015610529578373ffffffffffffffffffffffffffffffffffffffff16600282815481106104cb576104ca610d44565b5b9060005260206000200160009054906101000a900473ffffffffffffffffffffffffffffffffffffffff1673ffffffffffffffffffffffffffffffffffffffff160361051657600191505b808061052190610da2565b915050610493565b5080915050919050565b606060028054806020026020016040519081016040528092919081815260200182805480156105b757602002820191906000526020600020905b8160009054906101000a900473ffffffffffffffffffffffffffffffffffffffff1673ffffffffffffffffffffffffffffffffffffffff168152602001906001019080831161056d575b5050505050905090565b600580546105ce90610e19565b80601f01602080910402602001604051908101604052809291908181526020018280546105fa90610e19565b80156106475780601f1061061c57610100808354040283529160200191610647565b820191906000526020600020905b81548152906001019060200180831161062a57829003601f168201915b505050505081565b6006805461065c90610e19565b80601f016020809104026020016040519081016040528092919081815260200182805461068890610e19565b80156106d55780601f106106aa576101008083540402835291602001916106d5565b820191906000526020600020905b8154815290600101906020018083116106b857829003601f168201915b505050505081565b60035481565b600281815481106106f357600080fd5b906000526020600020016000915054906101000a900473ffffffffffffffffffffffffffffffffffffffff1681565b6000600460009054906101000a900473ffffffffffffffffffffffffffffffffffffffff1673ffffffffffffffffffffffffffffffffffffffff163373ffffffffffffffffffffffffffffffffffffffff160361077e57600080fd5b600060018111156107925761079161097b565b5b61079a610468565b60018111156107ac576107ab61097b565b5b146107b657600080fd5b600015156107c333610489565b1515146107cf57600080fd5b600354341015610814576040517f08c379a000000000000000000000000000000000000000000000000000000000815260040161080b90610e96565b60405180910390fd5b6002339080600181540180825580915050600190039060005260206000200160009091909190916101000a81548173ffffffffffffffffffffffffffffffffffffffff021916908373ffffffffffffffffffffffffffffffffffffffff1602179055507fcf6ea478d30b7e2b0d188cd4bc726f7e42c48dd94081b929ae8f03b8743f02d9336040516108a691906108f6565b60405180910390a16001905090565b600073ffffffffffffffffffffffffffffffffffffffff82169050919050565b60006108e0826108b5565b9050919050565b6108f0816108d5565b82525050565b600060208201905061090b60008301846108e7565b92915050565b60008115159050919050565b61092681610911565b82525050565b6000602082019050610941600083018461091d565b92915050565b6000819050919050565b61095a81610947565b82525050565b60006020820190506109756000830184610951565b92915050565b7f4e487b7100000000000000000000000000000000000000000000000000000000600052602160045260246000fd5b600281106109bb576109ba61097b565b5b50565b60008190506109cc826109aa565b919050565b60006109dc826109be565b9050919050565b6109ec816109d1565b82525050565b6000602082019050610a0760008301846109e3565b92915050565b600080fd5b610a1b816108d5565b8114610a2657600080fd5b50565b600081359050610a3881610a12565b92915050565b600060208284031215610a5457610a53610a0d565b5b6000610a6284828501610a29565b91505092915050565b600081519050919050565b600082825260208201905092915050565b6000819050602082019050919050565b6000610aa2826108b5565b9050919050565b610ab281610a97565b82525050565b6000610ac48383610aa9565b60208301905092915050565b6000602082019050919050565b6000610ae882610a6b565b610af28185610a76565b9350610afd83610a87565b8060005b83811015610b2e578151610b158882610ab8565b9750610b2083610ad0565b925050600181019050610b01565b5085935050505092915050565b60006020820190508181036000830152610b558184610add565b905092915050565b600081519050919050565b600082825260208201905092915050565b60005b83811015610b97578082015181840152602081019050610b7c565b60008484015250505050565b6000601f19601f8301169050919050565b6000610bbf82610b5d565b610bc98185610b68565b9350610bd9818560208601610b79565b610be281610ba3565b840191505092915050565b60006020820190508181036000830152610c078184610bb4565b905092915050565b610c1881610947565b8114610c2357600080fd5b50565b600081359050610c3581610c0f565b92915050565b600060208284031215610c5157610c50610a0d565b5b6000610c5f84828501610c26565b91505092915050565b610c7181610a97565b82525050565b6000602082019050610c8c6000830184610c68565b92915050565b600081905092915050565b50565b6000610cad600083610c92565b9150610cb882610c9d565b600082019050919050565b6000610cce82610ca0565b9150819050919050565b7f4661696c656420746f20776974686472617720616d6f756e7400000000000000600082015250565b6000610d0e601983610b68565b9150610d1982610cd8565b602082019050919050565b60006020820190508181036000830152610d3d81610d01565b9050919050565b7f4e487b7100000000000000000000000000000000000000000000000000000000600052603260045260246000fd5b7f4e487b7100000000000000000000000000000000000000000000000000000000600052601160045260246000fd5b6000610dad82610947565b91507fffffffffffffffffffffffffffffffffffffffffffffffffffffffffffffffff8203610ddf57610dde610d73565b5b600182019050919050565b7f4e487b7100000000000000000000000000000000000000000000000000000000600052602260045260246000fd5b60006002820490506001821680610e3157607f821691505b602082108103610e4457610e43610dea565b5b50919050565b7f496e76616c69642070726963652073656e740000000000000000000000000000600082015250565b6000610e80601283610b68565b9150610e8b82610e4a565b602082019050919050565b60006020820190508181036000830152610eaf81610e73565b905091905056fea2646970667358221220d6d820d2c17d128e1c09f6782018bf600a1b682b3f2d5740c23172b344ddeec464736f6c63430008110033",
  "linkReferences": {},
  "deployedLinkReferences": {}
}