{
  "_format": "hh-sol-artifact-1",
  "contractName": "GroupBuy",
  "sourceName": "contracts/GroupBuy.sol",
  "abi": [
    {
      "inputs": [
        {
          "internalType": "uint256",
          "name": "_endTime",
          "type": "uint256"
        },
        {
          "internalType": "uint256",
          "name": "_price",
          "type": "uint256"
        },
        {
          "internalType": "string",
          "name": "_productName",
          "type": "string"
        },
        {
          "internalType": "string",
          "name": "_productDescription",
          "type": "string"
        }
      ],
      "name": "createGroupbuy",
      "outputs": [
        {
          "internalType": "bool",
          "name": "",
          "type": "bool"
        }
      ],
      "stateMutability": "nonpayable",
      "type": "function"
    },
    {
      "inputs": [
        {
          "internalType": "uint256",
          "name": "index",
          "type": "uint256"
        }
      ],
      "name": "getGroupBuyInfo",
      "outputs": [
        {
          "internalType": "string",
          "name": "name",
          "type": "string"
        },
        {
          "internalType": "string",
          "name": "description",
          "type": "string"
        },
        {
          "internalType": "uint256",
          "name": "price",
          "type": "uint256"
        },
        {
          "internalType": "address",
          "name": "seller",
          "type": "address"
        },
        {
          "internalType": "uint256",
          "name": "endTime",
          "type": "uint256"
        },
        {
          "internalType": "uint256",
          "name": "groupBuyState",
          "type": "uint256"
        }
      ],
      "stateMutability": "view",
      "type": "function"
    },
    {
      "inputs": [
        {
          "internalType": "uint256",
          "name": "index",
          "type": "uint256"
        }
      ],
      "name": "getGroupBuysAddress",
      "outputs": [
        {
          "internalType": "address",
          "name": "",
          "type": "address"
        }
      ],
      "stateMutability": "view",
      "type": "function"
    },
    {
      "inputs": [],
      "name": "groupBuyIDCounter",
      "outputs": [
        {
          "internalType": "uint256",
          "name": "",
          "type": "uint256"
        }
      ],
      "stateMutability": "view",
      "type": "function"
    },
    {
      "inputs": [
        {
          "internalType": "uint256",
          "name": "",
          "type": "uint256"
        }
      ],
      "name": "groupBuys",
      "outputs": [
        {
          "internalType": "contract GroupBuyProduct",
          "name": "",
          "type": "address"
        }
      ],
      "stateMutability": "view",
      "type": "function"
    },
    {
      "inputs": [
        {
          "internalType": "address",
          "name": "",
          "type": "address"
        }
      ],
      "name": "groupBuysIDs",
      "outputs": [
        {
          "internalType": "uint256",
          "name": "",
          "type": "uint256"
        }
      ],
      "stateMutability": "view",
      "type": "function"
    }
  ],
  "bytecode": "0x60806040526000805534801561001457600080fd5b50612877806100246000396000f3fe60806040523480156200001157600080fd5b50600436106200006a5760003560e01c806312e7e044146200006f5780635b5db71b14620000aa578063804b54ba14620000e0578063a5b041111462000116578063d06e033f146200014c578063f3b84122146200016e575b600080fd5b6200008d6004803603810190620000879190620008c0565b620001a4565b604051620000a196959493929190620009e2565b60405180910390f35b620000c86004803603810190620000c29190620008c0565b62000613565b604051620000d7919062000a5d565b60405180910390f35b620000fe6004803603810190620000f89190620008c0565b6200065e565b6040516200010d919062000ae5565b60405180910390f35b6200013460048036038101906200012e919062000b70565b6200069e565b60405162000143919062000c45565b60405180910390f35b6200015662000845565b60405162000165919062000c62565b60405180910390f35b6200018c600480360381019062000186919062000cb0565b6200084b565b6040516200019b919062000c62565b60405180910390f35b60608060008060008060018781548110620001c457620001c362000ce2565b5b9060005260206000200160009054906101000a900473ffffffffffffffffffffffffffffffffffffffff1673ffffffffffffffffffffffffffffffffffffffff16637f7650eb6040518163ffffffff1660e01b8152600401600060405180830381865afa1580156200023a573d6000803e3d6000fd5b505050506040513d6000823e3d601f19601f8201168201806040525081019062000265919062000e4e565b9550600187815481106200027e576200027d62000ce2565b5b9060005260206000200160009054906101000a900473ffffffffffffffffffffffffffffffffffffffff1673ffffffffffffffffffffffffffffffffffffffff16638a30f8cc6040518163ffffffff1660e01b8152600401600060405180830381865afa158015620002f4573d6000803e3d6000fd5b505050506040513d6000823e3d601f19601f820116820180604052508101906200031f919062000e4e565b94506001878154811062000338576200033762000ce2565b5b9060005260206000200160009054906101000a900473ffffffffffffffffffffffffffffffffffffffff1673ffffffffffffffffffffffffffffffffffffffff1663a035b1fe6040518163ffffffff1660e01b8152600401602060405180830381865afa158015620003ae573d6000803e3d6000fd5b505050506040513d601f19601f82011682018060405250810190620003d4919062000eb6565b935060018781548110620003ed57620003ec62000ce2565b5b9060005260206000200160009054906101000a900473ffffffffffffffffffffffffffffffffffffffff1673ffffffffffffffffffffffffffffffffffffffff166308551a536040518163ffffffff1660e01b8152600401602060405180830381865afa15801562000463573d6000803e3d6000fd5b505050506040513d601f19601f8201168201806040525081019062000489919062000eff565b925060018781548110620004a257620004a162000ce2565b5b9060005260206000200160009054906101000a900473ffffffffffffffffffffffffffffffffffffffff1673ffffffffffffffffffffffffffffffffffffffff16633197cbb66040518163ffffffff1660e01b8152600401602060405180830381865afa15801562000518573d6000803e3d6000fd5b505050506040513d601f19601f820116820180604052508101906200053e919062000eb6565b91506001878154811062000557576200055662000ce2565b5b9060005260206000200160009054906101000a900473ffffffffffffffffffffffffffffffffffffffff1673ffffffffffffffffffffffffffffffffffffffff166344b6423d6040518163ffffffff1660e01b8152600401602060405180830381865afa158015620005cd573d6000803e3d6000fd5b505050506040513d601f19601f82011682018060405250810190620005f3919062000f59565b600181111562000608576200060762000f8b565b5b905091939550919395565b6000600182815481106200062c576200062b62000ce2565b5b9060005260206000200160009054906101000a900473ffffffffffffffffffffffffffffffffffffffff169050919050565b600181815481106200066f57600080fd5b906000526020600020016000915054906101000a900473ffffffffffffffffffffffffffffffffffffffff1681565b6000808611620006e5576040517f08c379a0000000000000000000000000000000000000000000000000000000008152600401620006dc906200100a565b60405180910390fd5b600587116200072b576040517f08c379a00000000000000000000000000000000000000000000000000000000081526004016200072290620010a2565b60405180910390fd5b600033888888888888604051620007429062000863565b62000754979695949392919062001106565b604051809103906000f08015801562000771573d6000803e3d6000fd5b5090506001819080600181540180825580915050600190039060005260206000200160009091909190916101000a81548173ffffffffffffffffffffffffffffffffffffffff021916908373ffffffffffffffffffffffffffffffffffffffff160217905550600054600260008373ffffffffffffffffffffffffffffffffffffffff1673ffffffffffffffffffffffffffffffffffffffff168152602001908152602001600020819055506000808154809291906200083190620011a4565b919050555060019150509695505050505050565b60005481565b60026020528060005260406000206000915090505481565b61165080620011f283390190565b6000604051905090565b600080fd5b600080fd5b6000819050919050565b6200089a8162000885565b8114620008a657600080fd5b50565b600081359050620008ba816200088f565b92915050565b600060208284031215620008d957620008d86200087b565b5b6000620008e984828501620008a9565b91505092915050565b600081519050919050565b600082825260208201905092915050565b60005b838110156200092e57808201518184015260208101905062000911565b60008484015250505050565b6000601f19601f8301169050919050565b60006200095882620008f2565b620009648185620008fd565b9350620009768185602086016200090e565b62000981816200093a565b840191505092915050565b620009978162000885565b82525050565b600073ffffffffffffffffffffffffffffffffffffffff82169050919050565b6000620009ca826200099d565b9050919050565b620009dc81620009bd565b82525050565b600060c0820190508181036000830152620009fe81896200094b565b9050818103602083015262000a1481886200094b565b905062000a2560408301876200098c565b62000a346060830186620009d1565b62000a4360808301856200098c565b62000a5260a08301846200098c565b979650505050505050565b600060208201905062000a746000830184620009d1565b92915050565b6000819050919050565b600062000aa562000a9f62000a99846200099d565b62000a7a565b6200099d565b9050919050565b600062000ab98262000a84565b9050919050565b600062000acd8262000aac565b9050919050565b62000adf8162000ac0565b82525050565b600060208201905062000afc600083018462000ad4565b92915050565b600080fd5b600080fd5b600080fd5b60008083601f84011262000b2a5762000b2962000b02565b5b8235905067ffffffffffffffff81111562000b4a5762000b4962000b07565b5b60208301915083600182028301111562000b695762000b6862000b0c565b5b9250929050565b6000806000806000806080878903121562000b905762000b8f6200087b565b5b600062000ba089828a01620008a9565b965050602062000bb389828a01620008a9565b955050604087013567ffffffffffffffff81111562000bd75762000bd662000880565b5b62000be589828a0162000b11565b9450945050606087013567ffffffffffffffff81111562000c0b5762000c0a62000880565b5b62000c1989828a0162000b11565b92509250509295509295509295565b60008115159050919050565b62000c3f8162000c28565b82525050565b600060208201905062000c5c600083018462000c34565b92915050565b600060208201905062000c7960008301846200098c565b92915050565b62000c8a81620009bd565b811462000c9657600080fd5b50565b60008135905062000caa8162000c7f565b92915050565b60006020828403121562000cc95762000cc86200087b565b5b600062000cd98482850162000c99565b91505092915050565b7f4e487b7100000000000000000000000000000000000000000000000000000000600052603260045260246000fd5b600080fd5b7f4e487b7100000000000000000000000000000000000000000000000000000000600052604160045260246000fd5b62000d50826200093a565b810181811067ffffffffffffffff8211171562000d725762000d7162000d16565b5b80604052505050565b600062000d8762000871565b905062000d95828262000d45565b919050565b600067ffffffffffffffff82111562000db85762000db762000d16565b5b62000dc3826200093a565b9050602081019050919050565b600062000de762000de18462000d9a565b62000d7b565b90508281526020810184848401111562000e065762000e0562000d11565b5b62000e138482856200090e565b509392505050565b600082601f83011262000e335762000e3262000b02565b5b815162000e4584826020860162000dd0565b91505092915050565b60006020828403121562000e675762000e666200087b565b5b600082015167ffffffffffffffff81111562000e885762000e8762000880565b5b62000e968482850162000e1b565b91505092915050565b60008151905062000eb0816200088f565b92915050565b60006020828403121562000ecf5762000ece6200087b565b5b600062000edf8482850162000e9f565b91505092915050565b60008151905062000ef98162000c7f565b92915050565b60006020828403121562000f185762000f176200087b565b5b600062000f288482850162000ee8565b91505092915050565b6002811062000f3f57600080fd5b50565b60008151905062000f538162000f31565b92915050565b60006020828403121562000f725762000f716200087b565b5b600062000f828482850162000f42565b91505092915050565b7f4e487b7100000000000000000000000000000000000000000000000000000000600052602160045260246000fd5b7f496e76616c696420707269636520736574000000000000000000000000000000600082015250565b600062000ff2601183620008fd565b915062000fff8262000fba565b602082019050919050565b60006020820190508181036000830152620010258162000fe3565b9050919050565b7f4d696e696d756d2074696d6520666f7220656163682070726f6475637420697360008201527f2035206d696e7574657300000000000000000000000000000000000000000000602082015250565b60006200108a602a83620008fd565b915062001097826200102c565b604082019050919050565b60006020820190508181036000830152620010bd816200107b565b9050919050565b82818337600083830152505050565b6000620010e18385620008fd565b9350620010f0838584620010c4565b620010fb836200093a565b840190509392505050565b600060a0820190506200111d600083018a620009d1565b6200112c60208301896200098c565b6200113b60408301886200098c565b818103606083015262001150818688620010d3565b9050818103608083015262001167818486620010d3565b905098975050505050505050565b7f4e487b7100000000000000000000000000000000000000000000000000000000600052601160045260246000fd5b6000620011b18262000885565b91507fffffffffffffffffffffffffffffffffffffffffffffffffffffffffffffffff8203620011e657620011e562001175565b5b60018201905091905056fe60806040523480156200001157600080fd5b5060405162001650380380620016508339818101604052810190620000379190620002fc565b84600460006101000a81548173ffffffffffffffffffffffffffffffffffffffff021916908373ffffffffffffffffffffffffffffffffffffffff1602179055508342620000869190620003f1565b60008190555042600181905550826003819055508160059081620000ab91906200066d565b508060069081620000bd91906200066d565b50505050505062000754565b6000604051905090565b600080fd5b600080fd5b600073ffffffffffffffffffffffffffffffffffffffff82169050919050565b60006200010a82620000dd565b9050919050565b6200011c81620000fd565b81146200012857600080fd5b50565b6000815190506200013c8162000111565b92915050565b6000819050919050565b620001578162000142565b81146200016357600080fd5b50565b60008151905062000177816200014c565b92915050565b600080fd5b600080fd5b6000601f19601f8301169050919050565b7f4e487b7100000000000000000000000000000000000000000000000000000000600052604160045260246000fd5b620001d28262000187565b810181811067ffffffffffffffff82111715620001f457620001f362000198565b5b80604052505050565b600062000209620000c9565b9050620002178282620001c7565b919050565b600067ffffffffffffffff8211156200023a576200023962000198565b5b620002458262000187565b9050602081019050919050565b60005b838110156200027257808201518184015260208101905062000255565b60008484015250505050565b6000620002956200028f846200021c565b620001fd565b905082815260208101848484011115620002b457620002b362000182565b5b620002c184828562000252565b509392505050565b600082601f830112620002e157620002e06200017d565b5b8151620002f38482602086016200027e565b91505092915050565b600080600080600060a086880312156200031b576200031a620000d3565b5b60006200032b888289016200012b565b95505060206200033e8882890162000166565b9450506040620003518882890162000166565b935050606086015167ffffffffffffffff811115620003755762000374620000d8565b5b6200038388828901620002c9565b925050608086015167ffffffffffffffff811115620003a757620003a6620000d8565b5b620003b588828901620002c9565b9150509295509295909350565b7f4e487b7100000000000000000000000000000000000000000000000000000000600052601160045260246000fd5b6000620003fe8262000142565b91506200040b8362000142565b9250828201905080821115620004265762000425620003c2565b5b92915050565b600081519050919050565b7f4e487b7100000000000000000000000000000000000000000000000000000000600052602260045260246000fd5b600060028204905060018216806200047f57607f821691505b60208210810362000495576200049462000437565b5b50919050565b60008190508160005260206000209050919050565b60006020601f8301049050919050565b600082821b905092915050565b600060088302620004ff7fffffffffffffffffffffffffffffffffffffffffffffffffffffffffffffffff82620004c0565b6200050b8683620004c0565b95508019841693508086168417925050509392505050565b6000819050919050565b60006200054e62000548620005428462000142565b62000523565b62000142565b9050919050565b6000819050919050565b6200056a836200052d565b62000582620005798262000555565b848454620004cd565b825550505050565b600090565b620005996200058a565b620005a68184846200055f565b505050565b5b81811015620005ce57620005c26000826200058f565b600181019050620005ac565b5050565b601f8211156200061d57620005e7816200049b565b620005f284620004b0565b8101602085101562000602578190505b6200061a6200061185620004b0565b830182620005ab565b50505b505050565b600082821c905092915050565b6000620006426000198460080262000622565b1980831691505092915050565b60006200065d83836200062f565b9150826002028217905092915050565b62000678826200042c565b67ffffffffffffffff81111562000694576200069362000198565b5b620006a0825462000466565b620006ad828285620005d2565b600060209050601f831160018114620006e55760008415620006d0578287015190505b620006dc85826200064f565b8655506200074c565b601f198416620006f5866200049b565b60005b828110156200071f57848901518255600182019150602085019450602081019050620006f8565b868310156200073f57848901516200073b601f8916826200062f565b8355505b6001600288020188555050505b505050505050565b610eec80620007646000396000f3fe6080604052600436106100ab5760003560e01c80637bea0d1c116100645780637bea0d1c146101c85780637f7650eb146101f35780638a30f8cc1461021e578063a035b1fe14610249578063f2aa821814610274578063f5c609e0146102b1576100b2565b806308551a53146100b457806324600fc3146100df5780633197cbb61461010a57806344b6423d1461013557806378e97925146101605780637a1881c11461018b576100b2565b366100b257005b005b3480156100c057600080fd5b506100c96102cf565b6040516100d691906108f6565b60405180910390f35b3480156100eb57600080fd5b506100f46102f5565b604051610101919061092c565b60405180910390f35b34801561011657600080fd5b5061011f610462565b60405161012c9190610960565b60405180910390f35b34801561014157600080fd5b5061014a610468565b60405161015791906109f2565b60405180910390f35b34801561016c57600080fd5b50610175610483565b6040516101829190610960565b60405180910390f35b34801561019757600080fd5b506101b260048036038101906101ad9190610a3e565b610489565b6040516101bf919061092c565b60405180910390f35b3480156101d457600080fd5b506101dd610533565b6040516101ea9190610b3b565b60405180910390f35b3480156101ff57600080fd5b506102086105c1565b6040516102159190610bed565b60405180910390f35b34801561022a57600080fd5b5061023361064f565b6040516102409190610bed565b60405180910390f35b34801561025557600080fd5b5061025e6106dd565b60405161026b9190610960565b60405180910390f35b34801561028057600080fd5b5061029b60048036038101906102969190610c3b565b6106e3565b6040516102a89190610c77565b60405180910390f35b6102b9610722565b6040516102c6919061092c565b60405180910390f35b600460009054906101000a900473ffffffffffffffffffffffffffffffffffffffff1681565b600060018081111561030a5761030961097b565b5b610312610468565b60018111156103245761032361097b565b5b1461032e57600080fd5b60004790506000600460009054906101000a900473ffffffffffffffffffffffffffffffffffffffff1673ffffffffffffffffffffffffffffffffffffffff168260405161037b90610cc3565b60006040518083038185875af1925050503d80600081146103b8576040519150601f19603f3d011682016040523d82523d6000602084013e6103bd565b606091505b5050905080610401576040517f08c379a00000000000000000000000000000000000000000000000000000000081526004016103f890610d24565b60405180910390fd5b7f4c0aac9a75e6f4eb3fa777d5d97b41afd303b89080e5f631bd0d26be23a33fd960405160405180910390a17f07ae1527d5997787f97ab7efcd65b540e55bfa674d2677393c95cc8c94c97ba760405160405180910390a160019250505090565b60005481565b60008054421061047b5760019050610480565b600090505b90565b60015481565b6000806000905060005b600280549050811015610529578373ffffffffffffffffffffffffffffffffffffffff16600282815481106104cb576104ca610d44565b5b9060005260206000200160009054906101000a900473ffffffffffffffffffffffffffffffffffffffff1673ffffffffffffffffffffffffffffffffffffffff160361051657600191505b808061052190610da2565b915050610493565b5080915050919050565b606060028054806020026020016040519081016040528092919081815260200182805480156105b757602002820191906000526020600020905b8160009054906101000a900473ffffffffffffffffffffffffffffffffffffffff1673ffffffffffffffffffffffffffffffffffffffff168152602001906001019080831161056d575b5050505050905090565b600580546105ce90610e19565b80601f01602080910402602001604051908101604052809291908181526020018280546105fa90610e19565b80156106475780601f1061061c57610100808354040283529160200191610647565b820191906000526020600020905b81548152906001019060200180831161062a57829003601f168201915b505050505081565b6006805461065c90610e19565b80601f016020809104026020016040519081016040528092919081815260200182805461068890610e19565b80156106d55780601f106106aa576101008083540402835291602001916106d5565b820191906000526020600020905b8154815290600101906020018083116106b857829003601f168201915b505050505081565b60035481565b600281815481106106f357600080fd5b906000526020600020016000915054906101000a900473ffffffffffffffffffffffffffffffffffffffff1681565b6000600460009054906101000a900473ffffffffffffffffffffffffffffffffffffffff1673ffffffffffffffffffffffffffffffffffffffff163373ffffffffffffffffffffffffffffffffffffffff160361077e57600080fd5b600060018111156107925761079161097b565b5b61079a610468565b60018111156107ac576107ab61097b565b5b146107b657600080fd5b600015156107c333610489565b1515146107cf57600080fd5b600354341015610814576040517f08c379a000000000000000000000000000000000000000000000000000000000815260040161080b90610e96565b60405180910390fd5b6002339080600181540180825580915050600190039060005260206000200160009091909190916101000a81548173ffffffffffffffffffffffffffffffffffffffff021916908373ffffffffffffffffffffffffffffffffffffffff1602179055507fcf6ea478d30b7e2b0d188cd4bc726f7e42c48dd94081b929ae8f03b8743f02d9336040516108a691906108f6565b60405180910390a16001905090565b600073ffffffffffffffffffffffffffffffffffffffff82169050919050565b60006108e0826108b5565b9050919050565b6108f0816108d5565b82525050565b600060208201905061090b60008301846108e7565b92915050565b60008115159050919050565b61092681610911565b82525050565b6000602082019050610941600083018461091d565b92915050565b6000819050919050565b61095a81610947565b82525050565b60006020820190506109756000830184610951565b92915050565b7f4e487b7100000000000000000000000000000000000000000000000000000000600052602160045260246000fd5b600281106109bb576109ba61097b565b5b50565b60008190506109cc826109aa565b919050565b60006109dc826109be565b9050919050565b6109ec816109d1565b82525050565b6000602082019050610a0760008301846109e3565b92915050565b600080fd5b610a1b816108d5565b8114610a2657600080fd5b50565b600081359050610a3881610a12565b92915050565b600060208284031215610a5457610a53610a0d565b5b6000610a6284828501610a29565b91505092915050565b600081519050919050565b600082825260208201905092915050565b6000819050602082019050919050565b6000610aa2826108b5565b9050919050565b610ab281610a97565b82525050565b6000610ac48383610aa9565b60208301905092915050565b6000602082019050919050565b6000610ae882610a6b565b610af28185610a76565b9350610afd83610a87565b8060005b83811015610b2e578151610b158882610ab8565b9750610b2083610ad0565b925050600181019050610b01565b5085935050505092915050565b60006020820190508181036000830152610b558184610add565b905092915050565b600081519050919050565b600082825260208201905092915050565b60005b83811015610b97578082015181840152602081019050610b7c565b60008484015250505050565b6000601f19601f8301169050919050565b6000610bbf82610b5d565b610bc98185610b68565b9350610bd9818560208601610b79565b610be281610ba3565b840191505092915050565b60006020820190508181036000830152610c078184610bb4565b905092915050565b610c1881610947565b8114610c2357600080fd5b50565b600081359050610c3581610c0f565b92915050565b600060208284031215610c5157610c50610a0d565b5b6000610c5f84828501610c26565b91505092915050565b610c7181610a97565b82525050565b6000602082019050610c8c6000830184610c68565b92915050565b600081905092915050565b50565b6000610cad600083610c92565b9150610cb882610c9d565b600082019050919050565b6000610cce82610ca0565b9150819050919050565b7f4661696c656420746f20776974686472617720616d6f756e7400000000000000600082015250565b6000610d0e601983610b68565b9150610d1982610cd8565b602082019050919050565b60006020820190508181036000830152610d3d81610d01565b9050919050565b7f4e487b7100000000000000000000000000000000000000000000000000000000600052603260045260246000fd5b7f4e487b7100000000000000000000000000000000000000000000000000000000600052601160045260246000fd5b6000610dad82610947565b91507fffffffffffffffffffffffffffffffffffffffffffffffffffffffffffffffff8203610ddf57610dde610d73565b5b600182019050919050565b7f4e487b7100000000000000000000000000000000000000000000000000000000600052602260045260246000fd5b60006002820490506001821680610e3157607f821691505b602082108103610e4457610e43610dea565b5b50919050565b7f496e76616c69642070726963652073656e740000000000000000000000000000600082015250565b6000610e80601283610b68565b9150610e8b82610e4a565b602082019050919050565b60006020820190508181036000830152610eaf81610e73565b905091905056fea2646970667358221220d6d820d2c17d128e1c09f6782018bf600a1b682b3f2d5740c23172b344ddeec464736f6c63430008110033a2646970667358221220f9729a22182975166cf5822f12fbbaa2de74af25b144315db5e480812085d41564736f6c63430008110033",
  "linkReferences": {},
  "deployedLinkReferences": {}
}